[
    {
        "hash": "d744db74fb70ed42767ae028a129365fb4d7de54ba1b6575fb047490554f8a7b",
        "confirmations": 202,
        "strippedsize": 1424,
        "size": 1424,
        "weight": 5696,
        "height": 0,
        "mintedBlocks": 0,
        "stakeModifier": "0000000000000000000000000000000000000000000000000000000000000000",
        "version": 1,
        "versionHex": "00000001",
        "merkleroot": "5615dbbb379da893dd694e02d25a7955e1b7471db55f42bbd82b5d3f5bdb8d38",
        "nonutxo": [
            {
                "AnchorReward": 0.2,
                "IncentiveFunding": 20
            }
        ],
        "tx": [
            {
                "txid": "9fb9c46b1d12dae8a4a35558f7ef4b047df3b444b1ead61d334e4f187f5f58b7",
                "hash": "9fb9c46b1d12dae8a4a35558f7ef4b047df3b444b1ead61d334e4f187f5f58b7",
                "version": 1,
                "size": 328,
                "vsize": 328,
                "weight": 1312,
                "locktime": 0,
                "vin": [
                    {
                        "coinbase": "0004ffff001d01044c6146696e616e6369616c2054696d65732032332f4d61722f3230323020546865204665646572616c20526573657276652068617320676f6e652077656c6c20706173742074686520706f696e74206f6620e28098514520696e66696e697479e28099",
                        "sequence": 4294967295
                    }
                ],
                "vout": [
                    {
                        "value": 100000000,
                        "n": 0,
                        "scriptPubKey": {
                            "asm": "OP_DUP OP_HASH160 b36814fd26190b321aa985809293a41273cfe15e OP_EQUALVERIFY OP_CHECKSIG",
                            "hex": "76a914b36814fd26190b321aa985809293a41273cfe15e88ac",
                            "reqSigs": 1,
                            "type": "pubkeyhash",
                            "addresses": [
                                "mwsZw8nF7pKxWH8eoKL9tPxTpaFkz7QeLU"
                            ]
                        }
                    },
                    {
                        "value": 100000000,
                        "n": 1,
                        "scriptPubKey": {
                            "asm": "OP_DUP OP_HASH160 8857c8c3ce618fe7ae5f8ee11ecc8ea421a1d829 OP_EQUALVERIFY OP_CHECKSIG",
                            "hex": "76a9148857c8c3ce618fe7ae5f8ee11ecc8ea421a1d82988ac",
                            "reqSigs": 1,
                            "type": "pubkeyhash",
                            "addresses": [
                                "mswsMVsyGMj1FzDMbbxw2QW3KvQAv2FKiy"
                            ]
                        }
                    },
                    {
                        "value": 100000000,
                        "n": 2,
                        "scriptPubKey": {
                            "asm": "OP_DUP OP_HASH160 8080dad765cbfd1c38f95e88592e24e43fb64282 OP_EQUALVERIFY OP_CHECKSIG",
                            "hex": "76a9148080dad765cbfd1c38f95e88592e24e43fb6428288ac",
                            "reqSigs": 1,
                            "type": "pubkeyhash",
                            "addresses": [
                                "msER9bmJjyEemRpQoS8YYVL21VyZZrSgQ7"
                            ]
                        }
                    },
                    {
                        "value": 100000000,
                        "n": 3,
                        "scriptPubKey": {
                            "asm": "OP_DUP OP_HASH160 6688df29563f6e8a6227d09322435237453229d9 OP_EQUALVERIFY OP_CHECKSIG",
                            "hex": "76a9146688df29563f6e8a6227d09322435237453229d988ac",
                            "reqSigs": 1,
                            "type": "pubkeyhash",
                            "addresses": [
                                "mps7BdmwEF2vQ9DREDyNPibqsuSRZ8LuwQ"
                            ]
                        }
                    },
                    {
                        "value": 100,
                        "n": 4,
                        "scriptPubKey": {
                            "asm": "OP_DUP OP_HASH160 9ab96d8f6df07466f5b497153ba69ea73b7a6561 OP_EQUALVERIFY OP_CHECKSIG",
                            "hex": "76a9149ab96d8f6df07466f5b497153ba69ea73b7a656188ac",
                            "reqSigs": 1,
                            "type": "pubkeyhash",
                            "addresses": [
                                "mud4VMfbBqXNpbt8ur33KHKx8pk3npSq8c"
                            ]
                        }
                    }
                ],
                "hex": "01000000010000000000000000000000000000000000000000000000000000000000000000ffffffff6b0004ffff001d01044c6146696e616e6369616c2054696d65732032332f4d61722f3230323020546865204665646572616c20526573657276652068617320676f6e652077656c6c20706173742074686520706f696e74206f6620e28098514520696e66696e697479e28099ffffffff050000c16ff28623001976a914b36814fd26190b321aa985809293a41273cfe15e88ac0000c16ff28623001976a9148857c8c3ce618fe7ae5f8ee11ecc8ea421a1d82988ac0000c16ff28623001976a9148080dad765cbfd1c38f95e88592e24e43fb6428288ac0000c16ff28623001976a9146688df29563f6e8a6227d09322435237453229d988ac00e40b54020000001976a9149ab96d8f6df07466f5b497153ba69ea73b7a656188ac00000000"
            },
            {
                "txid": "e86c027861cc0af423313f4152a44a83296a388eb51bf1a6dde9bd75bed55fb4",
                "hash": "e86c027861cc0af423313f4152a44a83296a388eb51bf1a6dde9bd75bed55fb4",
                "version": 1,
                "size": 122,
                "vsize": 122,
                "weight": 488,
                "locktime": 0,
                "vin": [
                    {
                        "coinbase": "",
                        "sequence": 4294967295
                    }
                ],
                "vout": [
                    {
                        "value": 1,
                        "n": 0,
                        "scriptPubKey": {
                            "asm": "OP_RETURN 4466547843018857c8c3ce618fe7ae5f8ee11ecc8ea421a1d829",
                            "hex": "6a1a4466547843018857c8c3ce618fe7ae5f8ee11ecc8ea421a1d829",
                            "type": "nulldata"
                        }
                    },
                    {
                        "value": 10,
                        "n": 1,
                        "scriptPubKey": {
                            "asm": "OP_DUP OP_HASH160 b36814fd26190b321aa985809293a41273cfe15e OP_EQUALVERIFY OP_CHECKSIG",
                            "hex": "76a914b36814fd26190b321aa985809293a41273cfe15e88ac",
                            "reqSigs": 1,
                            "type": "pubkeyhash",
                            "addresses": [
                                "mwsZw8nF7pKxWH8eoKL9tPxTpaFkz7QeLU"
                            ]
                        }
                    }
                ],
                "hex": "01000000010000000000000000000000000000000000000000000000000000000000000000ffffffff00ffffffff0200e1f505000000001c6a1a4466547843018857c8c3ce618fe7ae5f8ee11ecc8ea421a1d82900ca9a3b000000001976a914b36814fd26190b321aa985809293a41273cfe15e88ac00000000"
            },
            {
                "txid": "18a2c79448e8feeed9ee3e6a5ea9b2640062557ddac8e9ac2ee04f62ed484f24",
                "hash": "18a2c79448e8feeed9ee3e6a5ea9b2640062557ddac8e9ac2ee04f62ed484f24",
                "version": 1,
                "size": 122,
                "vsize": 122,
                "weight": 488,
                "locktime": 0,
                "vin": [
                    {
                        "coinbase": "",
                        "sequence": 4294967295
                    }
                ],
                "vout": [
                    {
                        "value": 1,
                        "n": 0,
                        "scriptPubKey": {
                            "asm": "OP_RETURN 4466547843016688df29563f6e8a6227d09322435237453229d9",
                            "hex": "6a1a4466547843016688df29563f6e8a6227d09322435237453229d9",
                            "type": "nulldata"
                        }
                    },
                    {
                        "value": 10,
                        "n": 1,
                        "scriptPubKey": {
                            "asm": "OP_DUP OP_HASH160 8080dad765cbfd1c38f95e88592e24e43fb64282 OP_EQUALVERIFY OP_CHECKSIG",
                            "hex": "76a9148080dad765cbfd1c38f95e88592e24e43fb6428288ac",
                            "reqSigs": 1,
                            "type": "pubkeyhash",
                            "addresses": [
                                "msER9bmJjyEemRpQoS8YYVL21VyZZrSgQ7"
                            ]
                        }
                    }
                ],
                "hex": "01000000010000000000000000000000000000000000000000000000000000000000000000ffffffff00ffffffff0200e1f505000000001c6a1a4466547843016688df29563f6e8a6227d09322435237453229d900ca9a3b000000001976a9148080dad765cbfd1c38f95e88592e24e43fb6428288ac00000000"
            },
            {
                "txid": "35db8101a4fb72d27af93622a20cdfee160466112252ac2866d5ccd564b55b25",
                "hash": "35db8101a4fb72d27af93622a20cdfee160466112252ac2866d5ccd564b55b25",
                "version": 1,
                "size": 122,
                "vsize": 122,
                "weight": 488,
                "locktime": 0,
                "vin": [
                    {
                        "coinbase": "",
                        "sequence": 4294967295
                    }
                ],
                "vout": [
                    {
                        "value": 1,
                        "n": 0,
                        "scriptPubKey": {
                            "asm": "OP_RETURN 4466547843018f765e54f7b309965b6eb6d455de6f04445fe794",
                            "hex": "6a1a4466547843018f765e54f7b309965b6eb6d455de6f04445fe794",
                            "type": "nulldata"
                        }
                    },
                    {
                        "value": 10,
                        "n": 1,
                        "scriptPubKey": {
                            "asm": "OP_DUP OP_HASH160 c2700426e3b889b602df089a4d53aef05fe6316a OP_EQUALVERIFY OP_CHECKSIG",
                            "hex": "76a914c2700426e3b889b602df089a4d53aef05fe6316a88ac",
                            "reqSigs": 1,
                            "type": "pubkeyhash",
                            "addresses": [
                                "myF3aHuxtEuqqTw44EurtVs6mjyc1QnGUS"
                            ]
                        }
                    }
                ],
                "hex": "01000000010000000000000000000000000000000000000000000000000000000000000000ffffffff00ffffffff0200e1f505000000001c6a1a4466547843018f765e54f7b309965b6eb6d455de6f04445fe79400ca9a3b000000001976a914c2700426e3b889b602df089a4d53aef05fe6316a88ac00000000"
            },
            {
                "txid": "3a64ec587a39d3f5b1e1944c6f800709453ce8fe7a65a63cec8cc2dd26ad8671",
                "hash": "3a64ec587a39d3f5b1e1944c6f800709453ce8fe7a65a63cec8cc2dd26ad8671",
                "version": 1,
                "size": 122,
                "vsize": 122,
                "weight": 488,
                "locktime": 0,
                "vin": [
                    {
                        "coinbase": "",
                        "sequence": 4294967295
                    }
                ],
                "vout": [
                    {
                        "value": 1,
                        "n": 0,
                        "scriptPubKey": {
                            "asm": "OP_RETURN 446654784301de3fa64045e6ef4227e832a3886dfc4a121b38ab",
                            "hex": "6a1a446654784301de3fa64045e6ef4227e832a3886dfc4a121b38ab",
                            "type": "nulldata"
                        }
                    },
                    {
                        "value": 10,
                        "n": 1,
                        "scriptPubKey": {
                            "asm": "OP_DUP OP_HASH160 b48ac7f6ba3b966c4c5c81a985cd51416cf52c44 OP_EQUALVERIFY OP_CHECKSIG",
                            "hex": "76a914b48ac7f6ba3b966c4c5c81a985cd51416cf52c4488ac",
                            "reqSigs": 1,
                            "type": "pubkeyhash",
                            "addresses": [
                                "mwyaBGGE7ka58F7aavH5hjMVdJENP9ZEVz"
                            ]
                        }
                    }
                ],
                "hex": "01000000010000000000000000000000000000000000000000000000000000000000000000ffffffff00ffffffff0200e1f505000000001c6a1a446654784301de3fa64045e6ef4227e832a3886dfc4a121b38ab00ca9a3b000000001976a914b48ac7f6ba3b966c4c5c81a985cd51416cf52c4488ac00000000"
            },
            {
                "txid": "9453c482d36d38b94849feaacd0fe627cf26ff95895b7a12aa6c03d9d024b23c",
                "hash": "9453c482d36d38b94849feaacd0fe627cf26ff95895b7a12aa6c03d9d024b23c",
                "version": 1,
                "size": 122,
                "vsize": 122,
                "weight": 488,
                "locktime": 0,
                "vin": [
                    {
                        "coinbase": "",
                        "sequence": 4294967295
                    }
                ],
                "vout": [
                    {
                        "value": 1,
                        "n": 0,
                        "scriptPubKey": {
                            "asm": "OP_RETURN 446654784301d3f2ca03f247b0e6b44d62821a8e11912c10d405",
                            "hex": "6a1a446654784301d3f2ca03f247b0e6b44d62821a8e11912c10d405",
                            "type": "nulldata"
                        }
                    },
                    {
                        "value": 10,
                        "n": 1,
                        "scriptPubKey": {
                            "asm": "OP_DUP OP_HASH160 0ecd8fe751e20391dfb8a7f9664d5686db540d9d OP_EQUALVERIFY OP_CHECKSIG",
                            "hex": "76a9140ecd8fe751e20391dfb8a7f9664d5686db540d9d88ac",
                            "reqSigs": 1,
                            "type": "pubkeyhash",
                            "addresses": [
                                "mgsE1SqrcfUhvuYuRjqy6rQCKmcCVKNhMu"
                            ]
                        }
                    }
                ],
                "hex": "01000000010000000000000000000000000000000000000000000000000000000000000000ffffffff00ffffffff0200e1f505000000001c6a1a446654784301d3f2ca03f247b0e6b44d62821a8e11912c10d40500ca9a3b000000001976a9140ecd8fe751e20391dfb8a7f9664d5686db540d9d88ac00000000"
            },
            {
                "txid": "5a9f884dcfe5650b9454e0a48d83a817b41f3abe1f5e3e6c71d5718b956b675e",
                "hash": "5a9f884dcfe5650b9454e0a48d83a817b41f3abe1f5e3e6c71d5718b956b675e",
                "version": 1,
                "size": 122,
                "vsize": 122,
                "weight": 488,
                "locktime": 0,
                "vin": [
                    {
                        "coinbase": "",
                        "sequence": 4294967295
                    }
                ],
                "vout": [
                    {
                        "value": 1,
                        "n": 0,
                        "scriptPubKey": {
                            "asm": "OP_RETURN 44665478430131fab767bf34cd1e9e856b5d2c56883586666076",
                            "hex": "6a1a44665478430131fab767bf34cd1e9e856b5d2c56883586666076",
                            "type": "nulldata"
                        }
                    },
                    {
                        "value": 10,
                        "n": 1,
                        "scriptPubKey": {
                            "asm": "OP_DUP OP_HASH160 9ab96d8f6df07466f5b497153ba69ea73b7a6561 OP_EQUALVERIFY OP_CHECKSIG",
                            "hex": "76a9149ab96d8f6df07466f5b497153ba69ea73b7a656188ac",
                            "reqSigs": 1,
                            "type": "pubkeyhash",
                            "addresses": [
                                "mud4VMfbBqXNpbt8ur33KHKx8pk3npSq8c"
                            ]
                        }
                    }
                ],
                "hex": "01000000010000000000000000000000000000000000000000000000000000000000000000ffffffff00ffffffff0200e1f505000000001c6a1a44665478430131fab767bf34cd1e9e856b5d2c5688358666607600ca9a3b000000001976a9149ab96d8f6df07466f5b497153ba69ea73b7a656188ac00000000"
            },
            {
                "txid": "73ca119312bcb15d09ee87d9629de53cce815b22c8e51d67fee6dffb67a7287a",
                "hash": "73ca119312bcb15d09ee87d9629de53cce815b22c8e51d67fee6dffb67a7287a",
                "version": 1,
                "size": 119,
                "vsize": 119,
                "weight": 476,
                "locktime": 0,
                "vin": [
                    {
                        "coinbase": "",
                        "sequence": 4294967295
                    }
                ],
                "vout": [
                    {
                        "value": 1,
                        "n": 0,
                        "scriptPubKey": {
                            "asm": "OP_RETURN 446654784304da58e8b431e692d602cdc3c91f8df9a175fc9709",
                            "hex": "6a1a446654784304da58e8b431e692d602cdc3c91f8df9a175fc9709",
                            "type": "nulldata"
                        }
                    },
                    {
                        "value": 10,
                        "n": 1,
                        "scriptPubKey": {
                            "asm": "0 20d230f5ae43bc1a66f1c96f196f95b3be2a8466",
                            "hex": "001420d230f5ae43bc1a66f1c96f196f95b3be2a8466",
                            "reqSigs": 1,
                            "type": "witness_v0_keyhash",
                            "addresses": [
                                "bcrt1qyrfrpadwgw7p5eh3e9h3jmu4kwlz4prx73cqny"
                            ]
                        }
                    }
                ],
                "hex": "01000000010000000000000000000000000000000000000000000000000000000000000000ffffffff00ffffffff0200e1f505000000001c6a1a446654784304da58e8b431e692d602cdc3c91f8df9a175fc970900ca9a3b0000000016001420d230f5ae43bc1a66f1c96f196f95b3be2a846600000000"
            },
            {
                "txid": "03280abd3d3ae8dc294c1a572cd7912c3c3e53044943eac62c2f6c4687c87f10",
                "hash": "03280abd3d3ae8dc294c1a572cd7912c3c3e53044943eac62c2f6c4687c87f10",
                "version": 1,
                "size": 119,
                "vsize": 119,
                "weight": 476,
                "locktime": 0,
                "vin": [
                    {
                        "coinbase": "",
                        "sequence": 4294967295
                    }
                ],
                "vout": [
                    {
                        "value": 1,
                        "n": 0,
                        "scriptPubKey": {
                            "asm": "OP_RETURN 446654784304e0dc4bafbea4d48f538ae526d8143a7159a510ee",
                            "hex": "6a1a446654784304e0dc4bafbea4d48f538ae526d8143a7159a510ee",
                            "type": "nulldata"
                        }
                    },
                    {
                        "value": 10,
                        "n": 1,
                        "scriptPubKey": {
                            "asm": "0 2679c28d803f75e91f41132f4397dd4b76d9049d",
                            "hex": "00142679c28d803f75e91f41132f4397dd4b76d9049d",
                            "reqSigs": 1,
                            "type": "witness_v0_keyhash",
                            "addresses": [
                                "bcrt1qyeuu9rvq8a67j86pzvh5897afdmdjpyankp4mu"
                            ]
                        }
                    }
                ],
                "hex": "01000000010000000000000000000000000000000000000000000000000000000000000000ffffffff00ffffffff0200e1f505000000001c6a1a446654784304e0dc4bafbea4d48f538ae526d8143a7159a510ee00ca9a3b000000001600142679c28d803f75e91f41132f4397dd4b76d9049d00000000"
            }
        ],
        "time": 1579045065,
        "mediantime": 1579045065,
        "bits": "207fffff",
        "difficulty": 4.656542373906925e-10,
        "chainwork": "0000000000000000000000000000000000000000000000000000000000000002",
        "nTx": 9,
        "nextblockhash": "21b1a7b6fd0322581a60e7320b0c10843894b5707c950bded620e1dacfa85f39"
    }
]